:020000040800F2
:10000000B806002091010008990100089B01000832
:100010009D0100089F010008A101000800000000E8
:10002000000000000000000000000000A301000824
:10003000A501000800000000A7010008F50F000856
:10004000AB010008AB010008AB010008AB010008E0
:10005000AB010008AB010008AB010008AB010008D0
:10006000AB010008AB010008AB010008AB010008C0
:10007000AB010008AB010008AB010008AB010008B0
:10008000AB010008AB010008AB010008AB010008A0
:10009000AB010008AB010008AB010008AB01000890
:1000A000AB010008AB010008AB010008AB01000880
:1000B00085100008AB010008AB010008AB01000887
:1000C000AB010008AB010008AB010008AB01000860
:1000D000AB010008AB010008AB010008AB01000850
:1000E000AB010008AB010008AB01000800F002F80A
:1000F00000F03FF80AA090E8000C82448344AAF183
:100100000107DA4501D100F034F8AFF2090EBAE880
:100110000F0013F0010F18BFFB1A43F0010318473B
:10012000CC190000EC190000103A24BF78C878C13F
:10013000FAD8520724BF30C830C144BF04680C60ED
:10014000704700000023002400250026103A28BF35
:1001500078C1FBD8520728BF30C148BF0B60704739
:10016000642900F07D80002070471FB51FBD10B5C9
:1001700010BD00F03FF91146FFF7F7FF00F0FEFF5A
:1001800000F05DF903B4FFF7F2FF03BC00F060F983
:100190000948804709480047FEE7FEE7FEE7FEE71B
:1001A000FEE7FEE7FEE7FEE7FEE7FEE70448054957
:1001B000054A064B7047000025100008ED000008B6
:1001C000B8000020B8060020B8020020B8020020C5
:1001D0000FB41CB5074B06AA7B44694600900598EE
:1001E00000F0E7F80020694600F0F6F81CBC5DF866
:1001F00014FB0000FD0100002DE9F0410E4604460D
:10020000002020622046E168884730B3252805D0C9
:10021000D4E901219047206A401CF2E7E1682046BA
:1002200000278847050018D0A5F14100192802D8F9
:1002300020354FF400673246294620462760FFF7F5
:100240008FFF40B1012804D0F61D26F007060836BE
:10025000D8E7361DD6E72846DAE7206ABDE8F08100
:100260002DE9F0410646002410687529314616A58F
:1002700010D0AFF30080002802DA404213A507E057
:1002800031688A0701D512A502E0490704D511A5F6
:10029000012401E0AFF3008000210A2206F12407C7
:1002A00009E0B0FBF2FCB0FBF2F302FB1C003030C3
:1002B00078541846491C0028F3D123462A46304674
:1002C000BDE8F04100F016B8000000002D0000006D
:1002D0002B0000002000000070477047704710B5E9
:1002E00000F080F8006810BD10B5044600F07AF800
:1002F000046010BD2DE9F0470D469946924604462C
:1003000000F124080168880604D5E06921F0100195
:10031000216000E00120A84201DD471B00E000272A
:10032000A1697A1902EB0900081AA0612078C006B9
:1003300002D42046AFF30080002608E0D4E9012172
:100340001AF806009047206A401C761C20624E4531
:10035000F4DB2078C0060AD52046AFF3008006E023
:10036000D4E9012130209047206A401C2062381EC9
:10037000A7F10107F4DC07E0D4E9012118F8050032
:100380009047206A401C2062281EA5F10105F3DC7D
:100390002046AFF300802078000602D50220BDE899
:1003A000F0870120FBE7000001694A1C0261087820
:1003B000704700B58FB0CDE90131002105910549A5
:1003C0007944CDE9031011466846FFF715FF0FB0D9
:1003D00000BD0000E5FFFFFF0A6802F8010B0A609C
:1003E00070470000004870475800002000487047E0
:1003F000580000207546FFF7F9FFAE460500694634
:10040000534620F00700854618B020B5FFF7CEFE12
:10041000BDE820404FF000064FF000074FF0000805
:100420004FF0000B21F00701AC46ACE8C009ACE886
:10043000C009ACE8C009ACE8C0098D46704710B5EA
:100440000446AFF300802046BDE81040FFF79ABE97
:1004500001491820ABBEFEE72600020070472DE9D7
:10046000F04102460025002600200023002400273A
:1004700091F803C00CF00F0591F803C00CF0100CBC
:10048000BCF1000F03D091F802C04CEA050591F8C9
:1004900000C0BCF1000F31D0146800202BE04FF0F9
:1004A000010C0CFA00F3B1F800C00CEA03069E42FE
:1004B00020D183004FF00F0C0CFA03F7BC4305FA70
:1004C00003FC4CEA040491F803C0BCF1280F06D1E8
:1004D0004FF0010C0CFA00FCC2F814C00AE091F8CD
:1004E00003C0BCF1480F05D14FF0010C0CFA00FC21
:1004F000C2F810C0401C0828D1D31460B1F800C065
:10050000BCF1FF0F34DD546800202EE000F1080C30
:100510004FF0010808FA0CF3B1F800C00CEA03062A
:100520009E4221D183004FF00F0C0CFA03F7BC431D
:1005300005FA03FC4CEA040491F803C0BCF1280F4F
:1005400005D100F1080C08FA0CF8C2F8148091F8F3
:1005500003C0BCF1480F07D100F1080C4FF00108AF
:1005600008FA0CF8C2F81080401C0828CED354605A
:10057000BDE8F081F0B50A460023002400210025E3
:1005800000F00046B6F1004F02D11D4EF16901E0C6
:100590001B4E7168C0F3034583B200F44016B6F5F4
:1005A000401F08D121F07061154E766826F0706604
:1005B000134F7E6012E000F48016B6F5801F06D15E
:1005C000032606FA05F4A14341F0706106E0460DEA
:1005D000360103FA06F6B14341F0706122B1460DCF
:1005E000360103FA06F6314300F00046B6F1004F3B
:1005F00002D1034EF16101E0014E7160F0BD0000D7
:100600000000014010B5044684B90948806940F0F3
:100610000800074988614FF4407006490880064881
:10062000FFF71DFF01210220FFF7A4FF10BD00000E
:100630000010024028000020000C014010B50446C4
:10064000012C0CD10648806940F0080004498861FB
:100650004FF44060034908800348FFF700FF10BDD6
:100660000010024028000020000C014021B1028847
:1006700042F48062028004E002884FF6FF331A40A1
:100680000280704770B50246002400250023002038
:10069000958A138B1B0445EA030626F07F4404EA7F
:1006A00001068E4201D1012000E0002070BD21B181
:1006B000028842F00102028004E002884FF6FE73D5
:1006C0001A400280704721B1028842F48072028091
:1006D00004E002884FF6FF631A400280704721B1A0
:1006E000028842F40072028004E002884FF6FF5351
:1006F0001A40028070470CB5024600200023019387
:10070000009300920B0F019321F07F41019B1BB1DD
:10071000009B1433009303E0090C009B18330093F3
:10072000009B1B680B400BB1012000E000200CBDBA
:100730002DE9F04385B004460D460026B146042756
:10074000DFF8CC80A6884FF6C0700640684600F0FF
:1007500073FBDDF808802F48B8FBF0F01FFA80F932
:1007600046EA0906A68020884FF6FE7108402080E0
:1007700000262949286888420CD828684000B8FB20
:10078000F0F087B2042F00DA04273E4309F101009C
:10079000208427E0E8884BF6FF71884206D128685C
:1007A00000EB4000B8FBF0F087B209E0286800EBEE
:1007B000C00101EB0010B8FBF0F087B247F48047AE
:1007C000C7F30B0008B947F0010747F400400643A0
:1007D0004FF4967009FB00F04FF47A7190FBF1F042
:1007E000401C2084A683208840F0010020802688B9
:1007F0004FF6F5300640A8886989084306432680ED
:10080000A88929890843208105B0BDE8F08300004C
:1008100000127A0040420F00A086010070B5044625
:1008200001212046FFF722FF44F620600B490860B3
:1008300004E00A480068401E08490860084920464C
:10084000FFF720FF18B9054800680028F1D12046BD
:1008500000F060F80546284670BD00002400002026
:10086000400003002DE9F0478046894616461D46A4
:10087000089F00231A464946404600F05BF831467F
:10088000404600F001F9404600F0BCF801231A464A
:100890004946404600F04EF800240DE0781EA04284
:1008A00004D1404600F00EF8285503E04046FFF71B
:1008B000B5FF2855601CC4B2BC42EFDB0020BDE888
:1008C000F087000070B5044600212046FFF7CEFEF9
:1008D00001212046FFF703FF44F620600B49086022
:1008E00004E00A480068401E08490860084920469C
:1008F000FFF7C8FE18B9054800680028F1D1204666
:1009000000F008F80546284670BD000024000020CD
:10091000400003000146088AC0B2704712B141F09E
:10092000010102E04FF6FE73194001827047018217
:10093000704700002DE9F04105460F4614461E465B
:1009400001212846FFF7BFFE44F6206029490860D0
:1009500008E028480068401E2649086010B90120B8
:10096000BDE8F08124492846FFF7C5FE18B92148A3
:1009700000680028EDD11EB101212048FFF776FE66
:10098000224639462846FFF7C9FFBCB944F6206025
:100990001849086007E017480068401E15490860BC
:1009A00008B90120DCE71449491C2846FFF7A3FEDB
:1009B000E0B9104800680028EDD117E0012C15D1EE
:1009C00044F620600B49086007E00A480068401EB2
:1009D0000849086008B90120C2E709492846FFF71D
:1009E00051FE18B9034800680028EED1288B00207A
:1009F000B6E7000024000020010000100054004071
:100A00000200030010B5044644F620600F49086058
:100A100007E00E480068401E0C49086008B9012034
:100A200010BD0B492046FFF766FE28B108497C3906
:100A30002046FFF760FE18B9044800680028E8D196
:100A400001212046FFF74BFE0020E9E724000020AB
:100A5000800000102DE9F04106460F4614461D4661
:100A600000231A4639463046FFF764FF21463046D8
:100A700000F00AF82946304600F006F83046FFF745
:100A8000C1FFBDE8F081000070B504460D4644F694
:100A900020600B49086004E009480068401E0849CE
:100AA000086008492046FFF726FE18B90448006888
:100AB0000028F1D129462046FFF739FF70BD00001C
:100AC00024000020800000107FB504460E46154625
:100AD0002748806940F00100254988611C2025498C
:100AE000C870032088702448844218D12048C06907
:100AF00040F400101E49C8613046FFF783FD0095A1
:100B00002014ADF80C000020ADF80400ADF808008A
:100B1000ADF80A004BF6FF70ADF806001AE0174872
:100B2000844217D11248C06940F480001049C8615E
:100B30003046FFF783FD00952014ADF80C0000202F
:100B4000ADF80400ADF80800ADF80A004BF6FF70F0
:100B5000ADF8060000212046FFF7A9FD69462046B2
:100B6000FFF7E6FD01212046FFF7A1FD7FBD000054
:100B700000100240280000200054004000580040AF
:100B800070B506460C4615460548067005480470C3
:100B90000548057000200549087000F013F870BD85
:100BA0001C00002020000020210000202300002045
:100BB00010B5082002490870002000F081F810BD2F
:100BC0002300002010B5002027490870274800782E
:100BD000012804DD0846007840F008000870244829
:100BE000007848B121480078012805D11E480078D6
:100BF00040F004001C490870192000F059FA1D4803
:100C0000007800F05DF80A2000F052FA302000F081
:100C1000C8F81E2000F04CFA302000F0C2F81E2068
:100C200000F046FA302000F0BCF80A2000F040FA4C
:100C3000202000F0B6F80C49097841F0200000F0BF
:100C400028F804200C49087000F02AF800F018F881
:100C500002200A490870097841F0040000F019F8F0
:100C600000F042F810BD00001D000020210000200F
:100C700022000020230000201E0000201F00002072
:100C800010B5012000F005F84FF4FA6000F010FAFA
:100C900010BD10B504460021204600F04CF810BDF0
:100CA00010B50648007840F004000449087009783F
:100CB00041F00800FFF7EDFF10BD00001E0000200E
:100CC00010B504460548007844EA000300220448B1
:100CD00001780448FFF7BEFE10BD0000230000208D
:100CE0001C0000200054004010B50220FFF7D1FF87
:100CF0004FF4FA6000F0DCF910BD70B50446002531
:100D000004E0605D00F046F8681CC5B2605D002834
:100D1000F7D170BD10B5044644F00400FFF7D0FFD2
:100D2000012000F0C5F924F00400FFF7C9FF3220CC
:100D300000F0BEF910BD2DE9F04104460D4604F067
:100D4000F006F02000EA041746EA050000F029F852
:100D500047EA050000F025F8BDE8F0817FB50546BB
:100D60000C460A4B0FCB8DE80F00094800788442EF
:100D700003DD07480078401EC4B21DF82410294442
:100D8000C9B241F08000FFF784FF7FBDDC1A000884
:100D90002100002010B5044601212046FFF7CBFFBB
:100DA00010BD10B504462046FFF78AFF2046FFF726
:100DB000B1FF10BD38B501236A467521D02000F07F
:100DC0001DF89DF80000682817D1002422466B21E9
:100DD000D02000F023F8072422461921D02000F06B
:100DE0001DF8002422461C21D02000F017F800BF77
:100DF00022461B21D02000F011F838BDF8B504467A
:100E00000D4616461F4633462A462146024800979D
:100E1000FFF728FDF8BD00000058004070B50446FB
:100E20000D46164633462A4621460248FFF712FE73
:100E300070BD00000058004030B5002100220024A1
:100E400000232D4D6D6805F00C0121B1042905D05A
:100E5000082923D105E0294D056022E0274D0560D2
:100E60001FE0254D6D6805F47012234D6D6805F483
:100E70008034022505EB92421CB9214D5543056093
:100E80000BE01D4D6D6805F400351DB11C4D55433B
:100E9000056002E0194D5543056002E0174D0560FD
:100EA00000BF00BF144D6D6805F0F0010909154D34
:100EB0006B5C0568DD4045600F4D6D6805F4E061D1
:100EC000090A104D6B5C4568DD4085600A4D6D6810
:100ED00005F46051C90A0B4D6B5C4568DD40C56087
:100EE000054D6D6805F44041890B074D6B5CC56885
:100EF000B5FBF3F5056130BD0010024000127A0029
:100F000000093D00300000204000002010B500F036
:100F100001F810BD0CB50020019000903348006826
:100F200040F480303149086000BF3048006800F468
:100F3000003000900198401C0190009818B9019869
:100F4000B0F5A06FF1D12948006800F4003010B16D
:100F50000120009001E0002000900098012843D17A
:100F60002348006840F010002149086008460068E6
:100F700020F0070008600846006840F002000860A2
:100F80001A48406819494860084640684860084661
:100F9000406840F4806048600846406820F47C1057
:100FA00048600846406840F4E81048600846006819
:100FB00040F08070086000BF0C48006800F00070CE
:100FC0000028F9D00948406820F00300074948602C
:100FD0000846406840F00200486000BF034840688F
:100FE00000F00C000828F9D10CBD000000100240F0
:100FF0000020024002480068401C01490860704718
:101000002C000020054800680549B0FBF1F04FF0C6
:10101000E02148610720086170470000440000207B
:1010200040420F0010B51348006840F0010011491C
:10103000086008464068104908400E494860084664
:1010400000680E4908400B4908600846006820F413
:10105000802008600846406820F4FE0048604FF495
:101060001F008860FFF752FF4FF0006004490860DE
:1010700010BD0000001002400000FFF8FFFFF6FE68
:1010800008ED00E04FF08040008A00F0010058B108
:101090000648C06880F480400449C8608804008A1B
:1010A00020F0010089040882704700000010014010
:1010B00000BF044909688142FBD30021014A116045
:1010C000704700002C0000201748806940F0100095
:1010D000154988611548406820F040701349486000
:1010E0000846406840F0407048600846406820F07C
:1010F000406048600846406940F4804048610846C6
:10110000406820F0405048600846406840F0405039
:1011100048600846406820F0404048600846406902
:1011200040F4004048617047001002400010014048
:101130000B48C06940F001000949C86141F61F40F1
:101140008904088541F2873088850846008840F088
:10115000040008800846808940F0010088817047BB
:101160000010024001460020034A12680A400AB1FA
:10117000012000E000207047080801401FB5FFF77C
:1011800041FFFFF7A1FF00F05DF9FFF7D1FF864AAD
:1011900000218648FFF798FC834A01218448FFF725
:1011A00093FC6420FFF784FFFFF704FE0222102166
:1011B0004E20FFF7E5FCFFF7FBFCFFF761FD002089
:1011C00001900290EFE000231C22D0217848FFF725
:1011D00041FC062001AB3B22D02100907448FFF770
:1011E00041FB9DF805009DF8041040EA012071497B
:1011F00008809DF807009DF8061040EA01206E491E
:1012000008809DF809009DF8081040EA01206B490C
:1012100008804FF40050FFF7A5FF00282FD1FFF7FB
:101220002FFD4FF08040008820F001004FF08041FA
:1012300008806348406940F480406149486108463D
:10124000006940F40040086100205E490860002108
:101250000120FFF783FD5CA0FFF74FFD0121032074
:10126000FFF77CFD5CA0FFF748FD56485CA10268D3
:1012700003A8FEF7ADFF03A8FFF73FFD74E0504859
:10128000406940F400404E4948618814FFF76AFF06
:1012900098B96420FFF70CFF4FF48050FFF762FF0E
:1012A00058B900BF4FF48050FFF75CFF0028F9D019
:1012B0004C480068401C4B4908604A48007800F0E0
:1012C0000100002842D01C20002809DB00F01F028A
:1012D000012191404209920002F1E022C2F800117E
:1012E00000BF4FF08040008840F001004FF0804187
:1012F00008803049098849432F4A12882E4B1B88A1
:1013000002FB03122D4909882C4B1B8801FB03208B
:1013100000F005F9064600F06FF8044600F0CEF83C
:1013200031490860314801682F48006800F060FBCF
:101330002F4908602F492E48006800F028FB13D27F
:1013400020480068401C1F4908600DE04FF08040B5
:10135000008820F001004FF0804108801848406963
:1013600040F480401649486100210120FFF7F6FC57
:1013700015A0FFF7C2FC01210320FFF7EFFC16A028
:10138000FFF7BBFC0F4816A1026803A8FEF720FF79
:1013900003A8FFF7B2FC14480068144908604FF432
:1013A000FA70FFF785FE0EE7A086010000540040AA
:1013B000005800400000002002000020040000202F
:1013C00000100140140000204854447563202D2073
:1013D0004E4B4B69656E000053746570733D200081
:1013E00025640000180000200C00002008000020E8
:1013F000100000200000C0402DE9F04106460F46D5
:1014000000F0F2F8041E0D4618BF0120284320F01A
:101410000040C0F17F6000F1E040C00F0ED0301CF2
:1014200018BF0120384320F00040C0F17F6000F178
:10143000E040C00F04BF0120FEF756FF20462946BA
:10144000BDE8F0811B48806940F0040019498861BB
:101450001948006820F440301749086008460068C1
:1014600020F4402008600846006840F4002008602E
:1014700011480830006840F480500F490831086076
:101480000D48006820F440100B49086008460068C9
:1014900020F4400008600846006840F4000008603E
:1014A00005480830006840F40050034908310860DE
:1014B00070470000001002400408014021F0004283
:1014C000A2F16052B2F5801F01F0004328BFD2F1B3
:1014D0007F6C0BD95FEA001C43EAC20242EB5070FA
:1014E00018BF704728BF20F001007047B2F5801F79
:1014F000BCBF184670474FEA410C1CF5001F02D2D2
:10150000084600F03FBA70B500F020F800000089EE
:10151000FFF7F6BF4FF00040A0F58000704710F0D5
:10152000004248BF4042B0FA80F310FA03F10AD0FB
:10153000C3F11D0303F580634FEA415002EB0352F0
:1015400002EBD12170474FF0000070470EF1020E00
:101550002EF0030E5EF8046B364205D4012A43EBED
:10156000030515F5001F12D8012841EB010C1CF5ED
:10157000001F0CD80ED14FEAD17C15F5001F0CEBE3
:101580004C0C0CF1020C08BF4CEBD37C04E04FF088
:10159000080C01E04FEAD37C0CEB4C0526FA05F66B
:1015A00006F00706B6F1040C06D20EEB860CBDE879
:1015B00070404CF0010C6047DFE80CF0090B0202B0
:1015C0004FF000414FF00000A1F5002170BD194619
:1015D0001046012851EB010418BFD4F5001484BF54
:1015E000002001F0004170BD2DE9F04101F5801CA3
:1015F000BCF5001FC0F2C3804FEA115C21EA0C5118
:101600000CF1FD0C41F480115FEA5C0C0CF5C07C20
:1016100001D3400049413DA4890241EA905187022B
:101620008E0E0A0CA45D04FB04F602FB06F6C6F15E
:101630004046A4FB0662F60D46EA422606FB06F487
:10164000A4FB01235242C3F1404338BF5B1EA6FBFB
:1016500002420024E6FB0324D20B42EA4446A6FBE6
:101660000623A1FB02E2A3FB07E4A4184FF000024B
:1016700052F10002E3FB01426442C2F1404E38BF26
:10168000AEF1010EA6FB04234FF00002E6FB0E3282
:10169000A2FB03464FF00004B61954F10004E2FB2C
:1016A0000264A1FB06E6A4FB07E816EB08064FF070
:1016B000000858F10008E4FB01687642C8F1405880
:1016C00038BFA8F10108A2FB06E4A3FB08E52D1929
:1016D0004FF0000454F10004E2FB0854A1FB05E6BE
:1016E000A7FB04E818EB06084FF0000656F10006C9
:1016F000E1FB048618F1200556F10006A809A8F1BF
:101700001B08B10908F03F08B8F10A0F40EA8660EB
:101710001CD901EB0C51BDE8F08100BFFCF5EEE8EF
:10172000E2DDD8D3CFCBC7C3C0BDB9B6B4B1AEAC80
:10173000A9A7A5A3A19F9D9B9A9896959392908FF8
:101740008D8C8B898887868584838281A0FB006845
:1017500000FB01F208EB4208B8EB872807D53418E4
:1017600058EB0104D5D5401C51F10001D1E7341AE2
:1017700078EB0104CDD4401E71F10001C9E75FEAA6
:101780004C0C5FEA9C5C0DD105D34FF0000001F0DA
:101790000041BDE8F081BDE8F04170B5FFF7D6FE2D
:1017A0006DDBFFBEBDE8F0414FF00000004970471F
:1017B0000000F87F90EA010F48BF81F0004100F17E
:1017C0001E81421A3CBF801A89184FEAD0524FF04E
:1017D0007F4C1CEA410FA2EBD15318BF9CEA026F69
:1017E00000F03B804FF0004C4CEA00204CEA012115
:1017F00021FA03FC10EB0C0C1ED202F1FF325FEA5F
:101800001C2040EBC25038BF70471CF07F0F4FEADE
:10181000400C18BFBCF17F4F38BF7047C3F12003A5
:10182000994008BF20F00100BCF17F4F38BF7047DE
:10183000A0F1C04000F0A6B84FEA3C00000A40EB1F
:10184000C25028BF1CF0FF0F4FEA400CE6D018BF73
:10185000BCF17F4F38BF7047EAE79CEA026F05D0C2
:1018600010EA5C0F08BF00F00040704710B500F0B0
:1018700043F800BF64FBBE3E401058BFC0F140407B
:10188000491058BFC1F140418142EFF300807047D9
:1018900050EA010C00F113801CF5000F58BFBCF595
:1018A000000F01D48842704707D710F5000F58BFCA
:1018B00011F5000F15D488427047894270471CF516
:1018C000000F04D5BCF5000FF7D5814270474FF0EB
:1018D000807C1CEB400F38BF1CEB410F01D28142D2
:1018E000704710B500F008F8922449004FF00050FE
:1018F0004FF08051FFF7C0BF0EF1020E2EF0030E25
:101900005EF8044B244204D44FEA4102B2F17F4F07
:1019100011D84FEA4003B3F17F4F0CD80ED14FEAF4
:10192000D07CB2F17F4F0CEB4C0C0CF1020C08BFD9
:101930004CEBD17C04E04FF0080C01E04FEAD17C85
:101940000CEB4C0324FA03F404F00704B4F1040C88
:1019500006D20EEB840CBDE810404CF0010C604741
:10196000DFE80CF0070802024FF00040A0F580000D
:1019700010BD0846420018BFD2F1807288BF00F047
:10198000004010BDFF2141EAD050C005704751EA28
:10199000000C00F113801CF5000F58BFBCF5000FC0
:1019A00001D48142704707D711F5000F58BF10F5D9
:1019B000000F15D481427047894270471CF5000F13
:1019C00004D5BCF5000FF7D5884270474FF0807CF6
:1019D0001CEB410F38BF1CEB400F01D2884270470F
:1019E00080EA010081EA000180EA0100FFF779BF87
:1019F00090EA010F48BF81F000413FF5E2AE421A84
:101A000004D882F00042A0EB020011444FEAD05209
:101A10004FF07F4C1CEA410FA2EBD15318BF9CEA58
:101A2000026F4AD04FF0004C4CEA00204CEA0121F2
:101A300021FA03FCB0EB0C0C0FD412F0FE0F36D0E1
:101A40005FEA4C001DD5001240EBC25038BF704712
:101A50001CF03F0F18BF70470BE0A2F101025FEAD4
:101A60001C2040EBC25038BF70471CF07F0F18BFDE
:101A70007047C3F12003994014BF401E20F00100BD
:101A8000704780084FEA122308BF7047B0FA80FC05
:101A9000A2EB0C02CCF1280C60FA0CF093EA122FA6
:101AA00004BF00EBC25070474FEAC3707047130A7F
:101AB0005FEADC1008BF7047F6E79CEA026F04D0CB
:101AC00010EA5C0F08BF0020704710B5FFF714FF45
:101AD00040DFF63E81F0004070470000000000004B
:101AE0004000000014000000540000000C1B00081F
:101AF000000000205800000028010008641B0008B6
:101B000058000020600600004401000800000000AA
:101B100000000000000000000000000000000000C5
:101B200000000000000000000000000000000000B5
:101B300000000000000000000000000000000000A5
:101B4000010203040102030406070809020406084F
:101B500000A24A040000000000000000010203048B
:041B60000607080963
:04000005080001915D
:00000001FF
